:020000040800F2
:100000000050002065180008950D0008990D0008A3
:1000100000000000000000000000000000000000E0
:100020000000000000000000000000009D0D00081E
:100030000000000000000000A10D0008A50D000850
:10004000B5180008B5180008B5180008B51800085C
:10005000B5180008B5180008B5180008B51800084C
:10006000B5180008B5180008B5180008B51800083C
:10007000B5180008B5180008B5180008B51800082C
:10008000B5180008B5180008B518000800000000F1
:10009000B5180008B5180008B5180008B51800080C
:1000A000B5180008B5180008B5180008B5180008FC
:1000B000B5180008B518000800000000B5180008C1
:1000C00010B5064C2378002B07D1054B002B02D02E
:1000D000044800E000BF0123237010BD040000208D
:1000E000000000000419000808B5084B002B03D0DD
:1000F0000748084900E000BF07480368002B03D009
:10010000064B002B00D0984708BDC04600000000F9
:10011000041900080800002004000020000000006E
:10012000002934D00123002210B488422CD30124AA
:100130002407A14204D2814202D209011B01F8E73F
:10014000E400A14204D2814202D249005B00F8E7F8
:10015000884201D3401A1A434C08A04202D3001B24
:100160005C0822438C08A04202D3001B9C08224357
:10017000CC08A04202D3001BDC082243002803D095
:100180001B0901D00909E3E7101C10BC70470028C7
:1001900001D00020C04307B4024802A140180290D9
:1001A00003BDC046190000000029F0D003B5FFF7D9
:1001B000B9FF0EBC4243891A1847C0467047C04673
:1001C000104B1968802252000A431A60D9680E4AFF
:1001D0000A40DA6019680D4A0A401A609A680121DB
:1001E0008A439A6019680A4A0A401A60D968094A1B
:1001F0000A40DA6000221A6180221205064B9A60DA
:100200007047C046001002400C40FF88F6FFF6FE23
:10021000FFFFFBFFFFFF02FF00ED00E0F0B55F46D0
:1002200056464D464446F0B489B0394BDA6A01254A
:100230002A43DA62DA6A2A400092009AD96A0222D4
:100240001143D962D96A0A400192019AD96A0422FB
:100250001143D962DB6A1A400292029B2D4EBF24E1
:100260002402301C211C002200F066FBA027FF05A1
:10027000B8235B019B46381C191C002200F05CFB74
:10028000254B9946A0231B029A464846191C00227A
:1002900000F052FB8023DB019846301C191C012220
:1002A00000F04AFB03940495002405940694301C46
:1002B00003A900F049FA5B4603930495059406945C
:1002C000381C03A900F040FA5346039304950594A3
:1002D0000694484603A900F037FA80231B010393D4
:1002E00004940594381C03A900F02EFA43460393A6
:1002F0001123049305940694301C03A900F024FAFA
:1003000009B03CBC90469946A246AB46F0BDC046FB
:10031000001002400004005000080050FEE7C046F4
:1003200000B583B05848594B036000230364C022D2
:10033000120642608360C36301220261C3600362EC
:100340004362C362C222FF328262036304224261BB
:10035000436383618363C36100F0CEFB002803D055
:100360004B48DB21FFF7DAFF0123009380235B0179
:1003700001934548694600F0B1FC002803D0444889
:10038000E421FFF7CBFF434B00933F48694600F061
:10039000A5FC002803D03E48EC21FFF7BFFF3E4BF1
:1003A00000933948694600F099FC002803D038488A
:1003B000F421FFF7B3FF394B00933348694600F04F
:1003C0008DFC002803D03248FC21FFF7A7FF344BF7
:1003D00000932D48694600F081FC002804D02C4889
:1003E00082214900FFF79AFF2E4B00932648694669
:1003F00000F074FC002804D0254886214900FFF74E
:100400008DFF294B00932048694600F067FC0028C7
:1004100004D01F488A214900FFF780FF234B009337
:100420001948694600F05AFC002804D018488E216B
:100430004900FFF773FF1E4B00931348694600F015
:100440004DFC002804D0124892214900FFF766FFB6
:10045000184B00930C48694600F040FC002804D07B
:100460000B4896214900FFF759FF134B00930648AC
:10047000694600F033FC002804D005489A21490061
:10048000FFF74CFF03B000BD8C00002000240140AA
:100490003819000802000004040000080800000CDD
:1004A000400000188000001C000100200002002411
:1004B000000400280008002C0010003000B583B0B4
:1004C0001448154B036000F0C9FA002804D0134803
:1004D000A2214900FFF722FF0023009301930D485A
:1004E0006946002200F0CEFA002804D00B484E21C5
:1004F000FF31FFF713FF07486946102200F0C2FAE8
:10050000002804D00548AA214900FFF707FF03B0DF
:1005100000BDC046200000200074004038190008CB
:1005200008B50F480F4B036082235B004360002334
:100530008360C360036143618022D2028261C36130
:100540000362436283620723C36200F0CDFC00288C
:1005500004D005486C21FF31FFF7E0FE08BDC0461E
:1005600034000020003001403819000800B595B073
:100570001E4B19681E4A0A40802109010A431A606D
:10058000022306930923099310230A93002310934F
:1005900006A800F031FD002803D01648A321FFF77C
:1005A000BDFE0F23019301230293002303930493C1
:1005B000059301A8002101F063F8002803D00D483D
:1005C000B121FFF7ABFE01F047F9FA218900FFF7EF
:1005D000A7FD00F087F8042000F0A0F801204042B9
:1005E0000021002200F04CF815B000BD0070004062
:1005F000FFE7FFFF38190008F8B500F003FAFFF72E
:10060000B5FFFFF70BFEFFF78BFEFFF757FFFFF776
:1006100087FF194C201C00210822322300F0C8F962
:10062000201C002100F08EF91448802109020122CB
:1006300000F082F90024114F802636020E4D01345D
:10064000E4B2FF2C0ED1381C311C002200F074F9EA
:10065000FA20C00000F0F4F9381C311C012200F02F
:100660006BF90024281C00210822231C00F0A0F9AB
:10067000322000F0E5F9E2E72000002000040050FD
:1006800070B5002816DAC0B20F230340083B9B0860
:100690009B00124A9B185D6803221040C000FF2295
:1006A000141C8440A54389010A408240281C104341
:1006B000586011E082080A4BC0329200D5580324DA
:1006C0002040C000FF24261C8640B54389010C4011
:1006D0008440281C2043D05070BDC04618ED00E077
:1006E00000E100E001380A4B98420FD8094B5860EE
:1006F000094A106A0002000AC0210906014311627A
:1007000000229A6007221A60002000E00120704752
:10071000FFFFFF0010E000E000ED00E0042805D13D
:10072000054B196804220A431A6004E0024B1A6858
:1007300004218A431A60704710E000E07047C04609
:1007400008B5FFF7FBFF08BDF0B55F4656464D46BE
:100750004446F0B485B000230122944603266E4C33
:10076000A3466E4DCAE062469A401740BA4600D191
:10077000C3E04F68022F01D0122F16D1DF080837CF
:10078000BF0001973C58A14607273C1C1C40A40011
:10079000A0460F27A7404C46BC43A1460F694446DC
:1007A000A7404C462743019C27504F687C1E012CD4
:1007B00003D9112F01D0122F1AD18768B8465C00D7
:1007C0000394371CA7404446BC43A046CF68039C13
:1007D000A74044462743876047689743B8464A681E
:1007E000D706FF0F3C1C029A944047463C434460A6
:1007F00007685A00341C9440E44303943C40A146EB
:100800004C68344094404F4627430760C768039CB8
:100810003C408F6897403C43C4604A68802464052C
:1008200022426AD05F467A6B644622437A639F080D
:1008300003973C1C0234A200394C1759341C1C404D
:10084000A4000F22A2409743B946A022D2059042AD
:100850001ED0344FB84219D0334A904213D0334F90
:10086000B8420ED0324A904208D0324FB84202D13C
:10087000052290460EE00627B8460BE0042290467B
:1008800008E0B04606E00227B84603E0E04601E093
:10089000002290464746A7403C1C4A461443039A10
:1008A000023292001E4FD4512A6890465446E243C9
:1008B000444614404F68FF0302D5544647463C4324
:1008C0002C606C68A04614404F68BF0302D55446A4
:1008D00047463C436C60AC68A04614404F68FF023A
:1008E00002D5544647463C43AC60EC6822404F6812
:1008F000BF0201D552462243EA6001330F680293DA
:100900003A1CDA4000D02EE705B03CBC9046994630
:10091000A246AB46F0BDC0460010024000040140B4
:10092000000001400004005000080050000C00507E
:1009300000100050001C0050002A01D0816100E02E
:100940008162704710B54379012B2ED0012242718C
:100950000223037103681C688A4022431A6000293D
:100960000DD103681A68196838242140540716D538
:10097000382914D1596801220A435A600FE00368EC
:100980001A681C68E02189032140540307D5E0223E
:100990009203914203D1596802220A435A6001230B
:1009A000037100234371002000E0022010BDC04607
:1009B00010B582B00024019400680190002904D190
:1009C000019952180832019203E001995218143229
:1009D0000192019A1360002002B010BD10B5041CF2
:1009E000074B1868FA218900FFF79AFBFFF77AFE98
:1009F00001204042211C0022FFF742FE002010BDD2
:100A00000000002008B5064B196840220A431A600E
:100A10000020FFF7E3FF00F0CBF9002008BDC0463F
:100A200000200240024B1A6801321A607047C0462B
:100A3000EC000020014B18687047C046EC00002015
:100A400010B582B00190FFF7F5FF041CFFF7F2FF2D
:100A5000021B019B9A42F9D302B010BD10B5041ECF
:100A60000DD00379002B02D1437100F0F1F902237C
:100A700023710023236101232371002000E0012062
:100A800010BDC04670B54379012B19D001234371C5
:100A900002240471046825680A4E9640B5430E6826
:100AA0004968314391402943216001680C68C025A1
:100AB0009540AC430C60037100234371002000E0BB
:100AC000022070BDFE0F000010B582B0041C084B60
:100AD00018680849FFF724FB4443019402E0019B96
:100AE000013B0193019B002BF9D102B010BDC04620
:100AF0000000002040420F0038B5041E00D1DFE0A6
:100B0000836D002B04D1C3655422835400F070F927
:100B1000A36DD80603D423689A68510708D5A26D3F
:100B200010231343A36500225423E2540120C8E09C
:100B3000A16D644A0A4002210A43A2659A68032112
:100B40000A40012A04D11A68D50703D4002202E022
:100B5000002200E00122002A2DD16268C02109068E
:100B60008A4207D08021C9058A4203D08021090624
:100B70008A4209D11A69920092081A6123681A6997
:100B8000606802431A610CE01A69920092081A61C7
:100B90004D4B19684D4A0A401A601A6861680A4349
:100BA0001A602368DA6818218A43DA602368DA68F1
:100BB000A5682A43DA60444B1968454A0A401A601E
:100BC0001968A06B42060A431A6023689A68D1002C
:100BD00004D49968802252050A439A602368D96830
:100BE0003C4A0A40DA602368D968E2682569022D28
:100BF00001D1042000E000200243256A680302437B
:100C0000256B68000243606B0243A569A803024399
:100C1000E569E80302430A43DA60A36AC222FF32AD
:100C2000934205D02268D168E06A03430B43D36046
:100C3000616A012911D1226A002A06D12368D96884
:100C4000802252020A43DA6007E0A26D2023134398
:100C5000A365E26D01231343E365236C012B13D1DC
:100C6000236819691C4A0A401A6123681969626C71
:100C7000A56C2A43E06C02430A431A612368196990
:100C800001220A431A6107E023681A69D10703D5D4
:100C90001A6901218A431A6123685A6907218A4324
:100CA0005A6123685A69E56B2A435A610023E36558
:100CB000A36D0322934301221343A365002000E0A8
:100CC000012038BDFDFEFFFF08270140FFFFC3FFE5
:100CD000FFFFFFFD1902FEFF03FCFFFF38B5041CF8
:100CE0000D1C5423C35C012B4AD001225423C2544F
:100CF00003689A68500708D5A26D20231343A365A3
:100D000000225423E25401203BE01E4A49689142EC
:100D10001BD0996A28684203520B0A439A622968D9
:100D2000490308D5184B1968802212040A431A6037
:100D30000A20FFF7C9FE2B689A031CD5124B1968CD
:100D40008022D2030A431A6015E09A6A2868410398
:100D5000490B8A439A622968490304D50A4B1968EA
:100D60000A4A0A401A602B689A0304D5064B196890
:100D7000074A0A401A6000225423E254002000E08F
:100D8000022038BD0110000008270140FFFF7FFF4F
:100D9000FFFFBFFF7047C046FEE7C0467047C04632
:100DA0007047C04608B5FFF73DFEFFF7C9FC08BD18
:100DB00008B50E4B596B01220A435A63996B802286
:100DC00052050A439A630520404200210022FFF7A2
:100DD00057FC0220404200210022FFF751FC012075
:100DE000404200210022FFF74BFC08BD00100240EA
:100DF00030B587B00268124B9A421FD1114B596B24
:100E0000802292000A435A63072301930324029429
:100E1000002503950C4801A9FFF796FC0194029464
:100E200003950A4801A9FFF78FFCCF230193029491
:100E30000395A020C00501A9FFF786FC07B030BDCF
:100E4000002401400010024000080050000400503F
:100E500000B587B002680B4B9A4210D10A4B996BD0
:100E6000802292050A439A6330230193032302935D
:100E700000230393A020C00501A9FFF765FC07B07C
:100E800000BDC046007400400010024070B586B03E
:100E90000268124B9A421ED1114B596B80225201AB
:100EA0000A435A6380231B02019302260296002400
:100EB0000394032504950594A020C00501A9FFF71C
:100EC00043FC382301930296039404950594054846
:100ED00001A9FFF739FC06B070BDC04600300140E3
:100EE000001002400004005038B5041E3BD05123CE
:100EF000C35C002B04D100225023C254FFF7C6FF6D
:100F000051230222E254226811684020814311607B
:100F100022686168A0680143E568294320690143AC
:100F20006569294380208000A56928400143E06964
:100F30000143256A2943A06A014311602268618B3D
:100F400004200140656A294351602268E06A10610B
:100F50002268D06905490140D16100226265012201
:100F6000E254002000E0012038BDC046FFF7FFFF3B
:100F700010B51D4BDB68F0221A4222D11A4B9B6B35
:100F8000DA0005D5194B1B68C02252011A400EE049
:100F9000154B996B802252050A439A63134A1168D4
:100FA000C02252010A409C6B114921409963C02321
:100FB0005B019A4207D1C0231B02984205D0002151
:100FC00004E0002102E0002100E00121094B186843
:100FD00001229043084318601B681A408A4201D0DE
:100FE000012000E0002010BD001002400070004011
:100FF000FFFFFFEF00200240F0B54F464646C0B469
:1010000083B0041C0068C00765D5C74BDB680C22A1
:101010001340082B08D0C44BDB6813400C2B0BD1BA
:10102000C14BDB68D90307D5BF4B1B689A0352D568
:101030006368002B4FD196E263688022520293428C
:1010400006D1B94B1968802252020A431A601EE089
:10105000A022D20293420BD1B34B19688022D20254
:101060000A431A601968802252020A431A600EE08D
:10107000AD4B1968AD4A0A401A60196880225202C5
:101080000A400192019A1968A94A0A401A606068E8
:10109000002810D0FFF7CEFC071CA34E8025AD0220
:1010A00005E0FFF7C7FCC31B642B00D95DE2336882
:1010B0002B42F6D00FE0FFF7BDFC071C9A4E8025AF
:1010C000AD0205E0FFF7B6FCC31B642B00D94EE26E
:1010D00033682B42F6D12168890754D5924BDB68DF
:1010E0000C221340042B08D08F4BDB6813400C2BD1
:1010F00014D18D4BDB68DA0310D48B4B1B68580777
:1011000003D5E168012900D033E2874B5968894A49
:101110000A40206901020A435A6034E0E368002B68
:101120001DD0814A1168092081430B431360FFF7EA
:1011300081FC071C7C4E042505E0FFF77BFCC31BEC
:10114000022B00D917E233681D42F6D0764B59685E
:10115000784A0A40206901020A435A6013E0724B40
:101160001A6801218A431A60FFF764FC071C6E4E5F
:10117000042505E0FFF75EFCC31B022B00D9FCE150
:1011800033681D42F6D12168C90600D48BE0664B56
:10119000DB680C221A4249D1634B1B689A0503D5C0
:1011A000E369002B00D1EAE1606A5F4B5A68E023F3
:1011B0001B021340984213D9FFF7DAFE002800D033
:1011C000DFE1594B59685C4A0A40606A02435A6041
:1011D00059680902090A206A02060A435A6012E0A5
:1011E000514B5968544A0A40104358605A681202D9
:1011F000120A206A01060A435A60606AFFF7B8FEC5
:10120000002800D0BFE1616A4B0B0133802212023B
:101210009A40454BDB681B061B0F4849CB5CDA4004
:10122000474B1A600020FFF7D9FB3CE0E269002A37
:1012300024D03D4B1968802252000A431A60FFF700
:10124000F9FB071C384E8025AD0005E0FFF7F2FBE7
:10125000C31B022B00D998E133682B42F6D0324BE6
:101260005968354A0A40606A02435A60596809025F
:10127000090A206A02060A435A6014E02A4B1968D8
:10128000304A0A401A60FFF7D5FB071C264E80251E
:10129000AD0005E0FFF7CEFBC31B022B00D976E1C2
:1012A00033682B42F6D1216809072BD56269002AE1
:1012B00014D01D4B196D01220A431A65FFF7BAFBC2
:1012C000071C194E022505E0FFF7B4FBC31B022BD8
:1012D00000D95EE1336D1D42F6D013E0124B1A6D5A
:1012E00001218A431A65FFF7A5FB071C0E4E022554
:1012F00005E0FFF79FFBC31B022B00D94BE1336DC9
:101300001D42F6D123685B0700D49AE0064B9B6B25
:10131000D80019D4044B996B802252050A439A6372
:101320000121884612E0C04600100240FFFFFEFF88
:10133000FFFFFBFFFFE0FFFFFF1FFFFF1C1900087F
:1013400000000020FFFEFFFF002290469F4B1B681D
:10135000D80515D49D4B1968802252000A431A60A3
:10136000FFF768FB071C994E80256D0005E0FFF72D
:1013700061FBC31B642B00D90FE133682B42F6D00D
:10138000A36880225200934206D1914B196D8022AE
:1013900052000A431A6524E0002B09D18C4B196DC9
:1013A0008C4A0A401A65196D8B4A0A401A6518E082
:1013B000A022D20093420BD1854B196D8022D2001E
:1013C0000A431A65196D802252000A431A6508E023
:1013D0007F4B196D7F4A0A401A65196D7E4A0A4093
:1013E0001A65A168002912D0FFF724FB8146784EC8
:1013F0008025AD00794F06E0FFF71CFB4A46831AB3
:10140000BB4200D9CBE0336D2B42F5D011E0FFF7A2
:1014100011FB81466E4E8025AD00704F06E0FFF750
:1014200009FB4946431ABB4200D9BAE0336D2B424F
:10143000F5D14246012A04D1654B996B684A0A40AE
:101440009A6323689B0638D5A06900281DD0604B9D
:101450009968012211439960596B0A435A63614BA1
:10146000196A802292010A431A62FFF7E3FA071C05
:10147000574E022505E0FFF7DDFAC31B022B00D90A
:1014800091E0B3681D42F6D017E0514B9A680121F4
:101490008A439A60534B196A534A0A401A62FFF70B
:1014A000C9FA071C4A4E022504E0FFF7C3FAC31B22
:1014B000022B7AD8B3681D42F7D1A36A002B76D0ED
:1014C000434AD2680C210A400C2A72D0022B34D134
:1014D0003F4B1968454A0A401A60FFF7ABFA071CF0
:1014E0003B4E8025AD0404E0FFF7A4FAC31B022B9A
:1014F00061D833682B42F7D1354BD9683C4A11404B
:10150000E06A226B1043626B02430A43DA60196897
:10151000802252040A431A60FFF78CFA061C2C4DF5
:101520008024A40404E0FFF785FA831B022B44D82F
:101530002B682342F7D0002042E0254B19682B4A44
:101540000A401A60FFF776FA061C214D8024A40495
:1015500004E0FFF76FFA831B022B30D82B6823427D
:10156000F7D100202CE001202AE0032028E003200E
:1015700026E0012024E0032022E0032020E00120D7
:101580001EE001201CE001201AE0032018E00320E7
:1015900016E0032014E0032012E0032010E00320F3
:1015A0000EE003200CE003200AE0032008E0002006
:1015B00006E0012004E0032002E0032000E0032015
:1015C00003B00CBC90469946F0BDC0460070004088
:1015D00000100240FFFEFFFFFFFBFFFF881300002B
:1015E000FFFFFFEF00000140FFDFFFFFFFFFFFFEF7
:1015F000FFFF02FF08B51D4BD9680C230B40082BD9
:1016000030D00C2B07D0042B23D1184B1B68D806E5
:101610002AD5174829E08B021B0F164AD25C090213
:10162000890F0131114BDB68D80304D512485043B0
:10163000FEF776FD19E00D4B1B68D80604D50C4863
:101640005043FEF76DFD10E00C485043FEF768FD77
:101650000BE0064B5B681B045B0F0133802000022C
:10166000984002E0044800E0044808BD0010024031
:1016700000093D002C19000800127A000024F40033
:10168000F8B54F464646C0B4041C0D1C6B4B1B6896
:10169000012213408B4209D2684B196891432943B8
:1016A00019601B681A40AA4200D0B0E0216889077F
:1016B00006D5634BDA68F0218A43A1680A43DA60F1
:1016C0002268D2076FD56368022B04D15C4A126886
:1016D000910313D49DE0032B04D1594A1268910160
:1016E0000CD498E0012B04D1554A1268510705D457
:1016F00093E0534A1268910500D490E0504AD168B3
:10170000032081430B43D360FFF794F9061C636801
:10171000022B11D105E0FFF78DF9801B484505D953
:101720007FE0474A90460C27464B99464146CB6896
:101730003B40082BEFD136E0032B11D105E0FFF73A
:1017400079F9801B484505D96DE03D4A90460C2744
:101750003C4B99464146CB683B400C2BEFD122E0F5
:10176000012B17D105E0FFF765F9801B484505D926
:101770005BE0334A90460C27324B99464146CB6892
:101780003B40042BEFD10EE0FFF754F9801B484596
:1017900005D94CE02A4A90460C272A4B99464146E7
:1017A000CB681F42F0D1254B1B6801221340AB428E
:1017B00008D9224B19689143294319601B681A40C4
:1017C000AA4236D12268520706D51D4BD9681E4A57
:1017D0000A40E1680A43DA602268120707D5184B0D
:1017E000D9681A4A0A402169C9000A43DA60FFF73A
:1017F00001FF134BDB681B061B0F154AD35CD84057
:10180000144B18600020FFF7E9F8002012E00120D7
:1018100010E001200EE001200CE001200AE0012090
:1018200008E0032006E0032004E0032002E0032098
:1018300000E001200CBC90469946F8BD0020024013
:101840000010024088130000FFF8FFFFFFC7FFFFF2
:101850001C19000800000020014B18687047C046A2
:10186000000000200D488546002103E00C4B5B582A
:10187000435004310B480C4B42189A42F6D30B4AA2
:1018800002E0002313600432094B9A42F9D3FEF7B9
:1018900097FC00F011F8FEF7AFFEFEE700500020C5
:1018A0004C19000800000020040000200400002063
:1018B000F0000020FEE7000070B50E4B0E4D002436
:1018C000ED1AAD101E1CAC4204D0A300F35898478B
:1018D0000134F8E700F016F8084B094D0024ED1A22
:1018E000AD101E1CAC4204D0A300F358984701343D
:1018F000F8E770BD441900084419000844190008AD
:1019000048190008F8B5C046F8BC08BC9E467047A8
:0C191000F8B5C046F8BC08BC9E46704705
:10191C000000000000000000010203040607080993
:10192C00030406080C101820300000005372632FBB
:08193C006D61696E2E6300006D
:04194400E9000008AE
:04194800C1000008D2
:04194C0080841E0075
:040000050800186572
:00000001FF
