:020000040800F2
:100000000020002091310008911B0008951B00087A
:1000100000000000000000000000000000000000E0
:10002000000000000000000000000000991B000814
:1000300000000000000000009D1B0008A11B00083C
:10004000E1310008E1310008E1310008E131000848
:10005000E1310008E1310008E1310008AD1B000882
:10006000E1310008E1310008E1310008E131000828
:10007000E1310008E131000800000000E131000832
:1000800000000000E1310008000000000000000056
:10009000E131000800000000E1310008E131000812
:1000A000E1310008E1310008E1310008E1310008E8
:1000B000E1310008E1310008E1310008E1310008D8
:1000C00010B5064C2378002B07D1054B002B02D02E
:1000D000044800E000BF0123237010BD1000002081
:1000E000000000004432000808B5084B002B03D084
:1000F0000748084900E000BF07480368002B03D009
:10010000064B002B00D0984708BDC04600000000F9
:1001100044320008140000201000002000000000FD
:10012000002934D00123002210B488422CD30124AA
:100130002407A14204D2814202D209011B01F8E73F
:10014000E400A14204D2814202D249005B00F8E7F8
:10015000884201D3401A1A434C08A04202D3001B24
:100160005C0822438C08A04202D3001B9C08224357
:10017000CC08A04202D3001BDC082243002803D095
:100180001B0901D00909E3E7101C10BC70470028C7
:1001900001D00020C04307B4024802A140180290D9
:1001A00003BDC046190000000029F0D003B5FFF7D9
:1001B000B9FF0EBC4243891A1847C0467047C04673
:1001C00038B50E4B0C4A041C0D1C01F09DF900289B
:1001D00004D1201C291C01F0FBF838BD074B064A4E
:1001E000201C291C00F0C0FD01F0F2F880231B0642
:1001F000C018F2E7C046C046000000000000E04121
:10020000F0B5564644465F464D46F0B41F1C0B03FE
:100210001B0B98464B0087B0041C81465B0DC80F32
:10022000161C9A460090002B51D06A4B9A4531D04B
:100230008022414652030A43630FD2001A43664BA1
:1002400090460025E20091469A44002402953B0323
:100250001B0B9B46FD0F7B00311C5B0D019560D095
:100260005C4A934254D08021584649030143720F9F
:10027000C9001143584A8B469B18F1000020009A90
:1002800004436A4003920F2C00D9ADE0534EA40002
:100290003459A746404604436ED100210225082464
:1002A000884689460295D2E7009C0298C346494693
:1002B0000194022864D0032800D1ABE2012800D0C9
:1002C00038E2019A002402400025A14660E043463E
:1002D00023434AD04046002800D1C0E101F01EF976
:1002E000031E272B00DDB3E128210D1A211C083B3A
:1002F0004246E9409A400D1C1543221C9A40A846EC
:100300009146374B00251B1A9A46002402959EE71A
:100310005A4616430320002EB1D1B34600210220D5
:10032000ADE75A4632431BD05B46002B00D18AE131
:10033000584601F0F3F8272800DD7DE12822171A3E
:10034000011C321C08395B46FA408B40171C1F43C6
:10035000331C8B40BB46191C214B1B1A00208EE717
:100360000027BB460021012089E700200125042445
:100370008046814602956AE703250C24029566E7CC
:10038000019C0394039D01222A400024114DA146A3
:10039000002000212403260B0C0D2405114B3443AF
:1003A0002D0523402B435B005B08D207191C4846F0
:1003B000114307B03CBC90469946A246AB46F0BDFF
:1003C0000022802424039146024DE1E70024002509
:1003D000A146DDE7FF07000001FCFFFF64320008D3
:1003E0000DFCFFFFFFFF0F805546ED1A0495D84521
:1003F00000D953E100D14EE1049C0025013C4E465A
:1004000004944746A946584603020C0E1C430902B1
:10041000250C23041B0C0091381C291C0193FFF7A9
:100420007FFE019983464143381C8A46291CFFF709
:10043000BBFE330C090419438A450CD95B460919E4
:10044000013B8C4200D947E18A4500D844E10222B1
:100450005242934409195346CB1A181C291C98463A
:10046000FFF75EFE071C0198291C78438246404630
:10047000FFF79AFE36040B04360C33439A4509D92C
:100480001B197A1E9C4200D924E19A4500D821E12B
:10049000023F1B195E4632041743380CBB46009ED0
:1004A000009F51463F0C32045B1A5946BA46120C63
:1004B0000F043F0C904651467A434F434146414317
:1004C00056467043CF19160CBE19B14202D9802787
:1004D0007F02C019310C12043604120C4018B618F1
:1004E000834200D2C4E000D1BEE0191A4846861B00
:1004F000B145BF417F42CF1BA74200D113E1291C68
:10050000381CFFF70DFE019902904143381C8946C3
:10051000291CFFF749FE330C0904194389450CD9FE
:10052000029B0919013B8C4200D9FFE0894500D8A4
:10053000FCE0029F0919023F02974F46CF1B381C6F
:10054000291C0597FFF7ECFD071C0198291C78432F
:1005500081460598FFF728FE36040904360C0E4341
:10056000B14509D936197B1EB44200D9E0E0B14546
:1005700000D8DDE0023F3619029D4946761A29046B
:1005800039430B0457460A0C1B0C4046454658435A
:1005900055437B437A43EB18070CDB199D4202D984
:1005A00080256D0252191D0C00041B04000C521909
:1005B0001B18964235D300D1FCE001231943049E59
:1005C000994FF519002D00DCA1E0480709D00F2351
:1005D0000B40042B05D00B1D8B42894149428B44B3
:1005E000191C5A46D20107D5904B5C46049E8027C1
:1005F0001C40FF00A346F5198D4B9D427ADD039CFC
:100600000122224000248B4DA146C1E68024240310
:10061000474627424CD13C432403240B009A854D86
:10062000B6E63619481EB4425ED9011C9642C4D1C2
:10063000009E9E42C1D1C2E7031C283B311C994059
:100640008B46002188E6301C00F068FF203072E6FF
:10065000283B211C994000228846914651E6201CE7
:1006600000F05CFF20303BE60021B14500D33DE7C0
:10067000009F5A46B944B945BF417F423F19FB1814
:10068000013A9C421ED2984200D97EE000D1B5E0EA
:10069000191A93462AE7894500D8ADE648464646EA
:1006A00042467708D3074608C0071E438146AAE69C
:1006B0005846204212D1044324032A1C240B8946A5
:1006C0005C4D65E6A342E3D1009F4F45DBD9211A7B
:1006D00093460BE7171CDDE69B46BCE63C43240330
:1006E000240B009A534D53E6B24259D800D18AE008
:1006F000011C62E75F46C9087B07039E0B437C022F
:100700006D0501229946240B6D0D324040E64A4B9F
:10071000049FDB1B382B10DD039C012222400024A8
:100720000025A14634E60121494248E7029304E747
:100730001F1C21E7019C039441E71F2B40DC3F482D
:10074000049F0C1C3A1858469140DC4090402043CE
:100750000A1C511E8A41011C11435A46DA40131CDF
:10076000480709D00F220A40042A05D00A1D8A42F0
:10077000894149425B18111C1A0234D5039C01229D
:10078000224000240125A14602E6009F02214942A1
:10079000B9448B44B945894149420919CB18A4E6AB
:1007A000009D881E6900A942AD416D422C19361981
:1007B00000913AE7002B00D033E70024009437E79C
:1007C0001F4A049C5D46121BD5402A1C202B1FD0BB
:1007D0001C4E5F46A3199F403B1C19434B1E994179
:1007E00011430023BCE75A07C9080A43039F9146F7
:1007F0005B0201221C0B3A400025C9E54E45C4D8D6
:100800009346002172E6009F9F42C9D3011C0FE767
:100810000023E2E7802424035F463C432403240BA7
:10082000019A8946034DB3E5FF030000FFFFFFFE79
:10083000FE070000FF07000002FCFFFF1E0400008F
:10084000E2FBFFFF3E040000F0B5564644465F461B
:100850004D46F0B41F1C0B031B0B9A464B0087B090
:10086000041C80465B0DC80F161C02938146002BAA
:1008700068D0694B0299994232D080225346520384
:100880001A43D200630F1A439246644AE000891863
:1008900080460291002400253B031B0B9B467800F9
:1008A000FB0F321C400D039300D175E05A4B984268
:1008B00069D08022594652030A43730FD2001A436B
:1008C000564B9346C018F200002303994E467140E0
:1008D0001C430F2C00D9A9E0514EA4003459A7465F
:1008E00053461C4300D087E00025AA46A8460824AA
:1008F0000225D1E74946022D6CD0032D00D117E225
:10090000012D00D058E10D40EDB20024A94600238E
:10091000A0460020002125030A0D1C052D0B120501
:10092000404B2A43134023435B004C465B08E207DD
:10093000191C4046114307B03CBC90469946A2465C
:10094000AB46F0BD5346234350D05346002B00D155
:1009500084E1504600F0E2FD031E272B00DD76E126
:1009600028210D1A211C083B5246E9409A400D1CD3
:100970001543221C9A40AA4690462B4B00241B1A72
:100980000293002588E75B461E430323002E9CD17B
:10099000B3460022022398E75B46334321D05846F2
:1009A000002800D14EE100F0B9FD272800DD42E12A
:1009B00028210F1A021C311C083A5B46F94093406B
:1009C0000F1C1F43331C9340BB461A1C164B181AAE
:1009D00000237AE701230B4000249946A0460E4BE2
:1009E00097E70027BB46002201236EE7002104247D
:1009F0008A46884601254FE70C2403254CE700254D
:100A00008024A9462403A846034B82E7DA46904691
:100A100003991D1C6FE7C046FF07000001FCFFFFA4
:100A2000A4320008FFFF0F800DFCFFFF029F160C91
:100A3000381804904046070C0004000C1204120CF5
:100A4000031C5343041C3D1C7443554398463B1CF4
:100A500073436419A44644460293230C63449D42A5
:100A600004D9029D802464022D1902951D0C039562
:100A700045462C041B04240C1C1905945C46230CCD
:100A8000051C58432404240C8446381C60436543E9
:100A90005F438146CC44280C6044BB46814502D963
:100AA00080277F02BB442D04070C2D0C0004401945
:100AB0005546BC462F04E3448446280C3D0C2F1CAD
:100AC0005743B8462F1C77434243B94647463F0C2D
:100AD0009144BA46D14446434A4502D98022520243
:100AE000B6184F463A0CB6183A0447463F043F0C36
:100AF000B8462F1C67435D43444358436519019032
:100B0000380C2D184244B846AC4204D901988023D1
:100B10005B02C0180190039C029F201C6044C01916
:100B20006045A44147466442A4462B043C049946D0
:100B3000240C4C44A046D8448018C246E24490425B
:100B40009241574652429146F219E245BF417F42D7
:100B50004B46BC46D845BF41D4187F4263461F432D
:100B60002D0C7F19B24292414C45AD4152426D422B
:100B70001543019E7D19AB19E20D5B02059F1343DE
:100B800042023A439A46531E9A41C30D101C184321
:100B90006402204380465046C0010DD545460122DF
:100BA0005646049C6B082A401A43F30701341A4343
:100BB000760804949046B246049E634FF319002BC6
:100BC00061DD404640070BD00F2244462240042AF4
:100BD00006D042460432424580414042824490461B
:100BE0005546ED0107D5594B5646049F80201E40BF
:100BF000C000B2463B18564A934200DDEAE644463E
:100C00005546E2086807104301226C025B050A4062
:100C10008046240B5B0D91467BE6DA4690461D1C10
:100C200069E680242403574627421CD13C43240311
:100C3000240B484B6DE6031C283B311C99408B4626
:100C40000022C3E6301C00F069FC2030ADE6283BF2
:100C5000211C994000228A4690468EE6201C00F016
:100C60005DFC203078E65846204207D104430399C2
:100C70002403240B89469046364B4AE63C43240322
:100C8000240B344B45E6344B049E9B1B382B06DD6E
:100C900001230B4000249946A046002339E61F2B70
:100CA00025DC049C2D4D464660195246444686403C
:100CB000DC4082405746301C2243DF40441EA041A6
:100CC00002433B1C540709D00F201040042805D0D4
:100CD000101D9042924152429B18021C1D021AD5CF
:100CE00001230B4000249946A046012311E61C482D
:100CF000049C5546001BC540281C202B16D0194EBD
:100D00005746A21997403A1C43461A43531E9A412C
:100D100002430023D6E758075B02D2081C0B0123CD
:100D20000B401043994680460023F2E50022EBE792
:100D30008024240350460123044319402403240B38
:100D40008946044BE5E5C046FF030000FFFFFFFEB8
:100D5000FE070000FF07000002FCFFFF1E0400006A
:100D6000E2FBFFFF3E040000F8B55F4656464446EE
:100D70004D46F0B40C034D00CF0F610A440F2143E0
:100D8000C4001803DE0F8046B44646465800760A73
:100D9000530F3343D600D14A6D0DBA46400DB346CA
:100DA000904200D1F5E062460126724094466745C4
:100DB00000D1ABE02F1A002F00DC11E100283ED15A
:100DC0005846184300D0F1E0600700D197E00F23A8
:100DD0002340042B00D122E1221DA242A4416442FF
:100DE000802309191B04012750460B400740141C9F
:100DF000002B00D179E0B94B01359D4200D10BE1C8
:100E0000B74BE40819404807490204430B0B002084
:100E100000211B031A0B0B0D6D051B0513436A08FC
:100E2000B04DFF071D4015436D006D08291C394367
:100E3000201C3CBC90469946A246AB46F8BDA7484C
:100E40008542C1D0802000040343382F00DDFDE03F
:100E50001F2F00DD31E12020C01B1A1C5E4682409E
:100E6000FE40324394465A468240101C421E904136
:100E7000FB40624602431F1CA21A9442A4416442F2
:100E8000C91B091B141C0A029ED549024F0A002FD8
:100E900000D1D6E0381C00F041FB021C083A1F2AA2
:100EA00000DDC3E02821231C091A9740CB401F43D3
:100EB0009440954200DDC0E0551B691C1F2900DDF0
:100EC000EAE01F22551B3B1C221CAB40CA40AC4031
:100ED000651EAC411343CF401C43391C002573E70A
:100EE00080217E4D0027C90300247C4B4807E4087D
:100EF0000443C9089D4250D009030B0B87E78023A8
:100F00001B04012752460B40174071E72A1A9446EA
:100F1000002A00DCA1E0002854D07048854200D1AE
:100F200052E78020000403436046382800DD0EE1CC
:100F30001F2800DD57E162462020801A1E1C8640D3
:100F4000B1465E46D6404A4632435E4686409046AB
:100F5000301C421E9041424602436046C340121973
:100F6000A242A441644259180919141C080200D471
:100F70002AE75A4B01359D4200D131E1584B6008B8
:100F80001940012323401C1C0443CB071C43490880
:100F90001AE71E4300D00AE705E7231C0B433BD0AA
:100FA00080231B030B431B031B0B30E7013F002F68
:100FB0006DD15E46A21B9442A4416442C91A091B2A
:100FC000141C60E75846184300D1FDE6012676421E
:100FD000B4446046002800D0D0E05E463219BFE736
:100FE000002F00D080E0681C4005400D012800DC87
:100FF000E8E05A46A21A9442BF41C81A7F42C71B72
:101000003E0200D498E05846041BA3459241591A69
:1010100052428F1AE2463AE700230024F7E6802383
:101020001B04012756460B403740E1E6271C2838B1
:1010300087400024954200DC3EE72949AD1A39403B
:10104000C2E6201C00F06AFA203026E75A461A430E
:10105000531E9A41D2B200270EE7002A00D0DEE0EC
:10106000681C4605760D012E00DC90E01B4DA84261
:1010700000D1F5E05E463219A242A44164425918FB
:101080000919CC07520814434908051C9CE613486B
:10109000854200D0D9E697E62B1C1F3B3E1CDE4064
:1010A000331C20296FD03F22551BAF403C43601EAC
:1010B00084411C430021002586E6381C20381E1C74
:1010C000C640301C202F60D04022D71BBB405A4660
:1010D0001A43531E9A4102430027CDE6FF07000042
:1010E000FFFF7FFFFFFF0F80002D37D0B64DA842D6
:1010F00000D18FE080252D047F422943382F00DD69
:10110000A8E01F2F00DD24E12025ED1B0E1CAE40C2
:10111000B046261CFE404246AC401643651EAC411C
:101120003443F9405A46141BA34592415B1A52427C
:10113000991A051CE246A6E6131C3B43141C002B1F
:1011400000D0A4E60027002100250024CDE65A4661
:101150001A43531E9A41D2B2002300E70D1C2543C7
:1011600058D0FF43002F51D15A46141BA34592413A
:10117000591A5242891A051CE24684E69248854271
:1011800000D0D1E620E6002790E700239FE7081C67
:101190002043002D00D0C2E0002800D1EFE05846E7
:1011A000184300D110E658460219A242A4416442F5
:1011B00059180919141C0A0200D405E6834B0125AD
:1011C000194001E6081C2043002D38D100286FD1BA
:1011D0005946194303D0191C5C46E246F4E5002742
:1011E0000021002481E6604620381A1CC240664671
:1011F000101C202E00D1AAE04022921B93405A4698
:101200001A43531E9A4102430023A8E66E4DA8429A
:1012100000D073E7191C5C46051CE246D4E5002D9E
:1012200022D10D1C254376D0D543002D70D15C44CE
:101230005C459241591852428918051C96E60028CF
:101240004CD15946194300D14AE6191C5C46E24686
:101250005D4DB9E50C43611E8C41E4B2002161E7AC
:10126000051C0021002440E6574DA84253D05542AA
:10127000802216043143382D7BDC1F2D00DD8CE0ED
:101280002022561B0A1CB446B240261CEE403243B4
:10129000904662469440661EB44142461443E9407B
:1012A0005C445C459241CB1852429918051C5DE69E
:1012B0005846184300D187E55E46A71BBC429241C1
:1012C000C81A5242801A060260D55846041BA3452C
:1012D0009241591A5242891AE24675E55846184316
:1012E00033D04807E40804438020C90800030142C2
:1012F00008D0DD08054205D15946CA085C071443E9
:10130000291CE246630FC9001943E4002E4D5BE53A
:101310002D4A9042AFD1191C5C46051C54E50028AB
:1013200030D05846184310D080254807E408C90833
:101330002D0304432942E5D0D8082842E2D15D4676
:10134000EA085C071443011CDCE71F4D3CE5002361
:1013500055E73D1C203D0E1CEE40351C202F2ED0A5
:101360004026F71BB9400C43611E8C412C430021E1
:10137000D8E60C43611E8C41E4B2002190E7191CB1
:101380005C4621E5191C5C460F4D1DE5031C3B43E3
:1013900000D124E7011C3C1C16E520267642761974
:1013A0000A1CF2409046202D0BD04026751BA94008
:1013B0000C43611E8C4145462C43002170E70021FF
:1013C000D1E70021F4E7C046FF070000FFFF7FFFE1
:1013D00070B50B1C124C09030E0B5900021C490D71
:1013E000DD0F0020A14211DD0E4881420FDC80207C
:1013F000400306430C48401A1F280BDD0B4A521AC3
:10140000D640321C5042002D00D1101C70BD084B3C
:10141000E818FBE7074BC240C9188E403243F1E79A
:10142000FE0300001D04000033040000130400004C
:10143000FFFFFF7FEDFBFFFF10B5041E28D000F07B
:101440006DF8154A121A0A2815DD0B38844024035A
:101450005205240B520D0023002000212403181CE8
:101460000B0D240B1B0523430C4C12051C4014438D
:101470006400610810BD031C1533211C99400B1C2E
:101480000B21081AC44024035205240B520DE3E734
:10149000002200240023DFE71E040000FFFF0F806E
:1014A0008446101C62468C46191C634600E0C04608
:1014B0001FB500F019F9002801D40021C8421FBD52
:1014C00010B500F049F84042013010BD10B500F0F1
:1014D0000BF9002801DB002010BD012010BDC04623
:1014E00010B500F001F9002801DD002010BD012039
:1014F00010BDC04610B500F079F8002801DC0020CE
:1015000010BD012010BDC04610B500F06FF80028D6
:1015100001DA002010BD012010BDC0461C210123AE
:101520001B04984201D3000C10391B0A984201D3C6
:10153000000A08391B09984201D30009043902A2A4
:10154000105C40187047C04604030202010101010B
:101550000000000000000000F0B55F4656464D4612
:101560004446F0B40D1C041C8046E80F8146180365
:101570000F03000B3F0B83B084461B4800974900C4
:101580005E00DF0F490D9246760DBB4681420CD0BE
:101590001548864210D00120B14215D003B03CBCA2
:1015A00090469946A246AB46F0BD009F01202743D6
:1015B000F4D10D488642EED1604602430120002A54
:1015C000ECD10120B142E9D1009B6345E6D1D04581
:1015D000E4D1D94506D00029E0D11C43201C441E8B
:1015E000A041DBE70020D9E7FF070000F0B55F4628
:1015F00056464D464446F0B4CD0FDE0FAC461D03B3
:101600002D0BB146374E0F034C00AB465D008046B4
:101610003F0B640D92466D0DB44232D0314EB5424F
:1016200035D0002C0ED1384341424141081C002DD9
:101630000BD0002919D1CC452DD065466842012335
:10164000184318E0002DF6D1281C59460A4353428E
:101650005341002806D1002BEDD0634658420123A8
:10166000184308E00020002B05D14A465042504163
:101670004042012318433CBC90469946A246AB46E3
:10168000F0BD3E1C0643C9D002204042F3E75E464F
:101690001643C6D0F8E7AC4207DC0BDA6146484295
:1016A0004841404201231843E5E766467042012362
:1016B0001843E0E75F450AD80ED000205F45DAD234
:1016C000654668426841404201231843D3E76246B9
:1016D000504201231843CEE7D045F8D80020D0452A
:1016E000EED3C8E7FF070000F0B556464D46444626
:1016F0005F46F0B40D1C83B0041C0190E80F8146D6
:1017000018030F03000B3F0B844635480097490030
:101710005E00DF0F490D9246760DB846814234D007
:101720002F48864236D0002918D0002E1FD1341CF5
:1017300067463A4353425341002C1FD00020002BF0
:1017400005D142465042504140420123184303B064
:101750003CBC90469946A246AB46F0BD0098044377
:1017600060426041041C002EE2D00028E9D1C1454E
:1017700015D04F46784201231843E8E7002BF6D0F6
:101780004B46584201231843E1E7009F02202743BC
:10179000DDD1C5E7674602201743D8D1C3E7B14280
:1017A00004DD4A46504201231843D0E7B14207DB2B
:1017B00000986045E4D80AD0009F00206745C6D253
:1017C0004F4678427841404201231843BFE7019ACF
:1017D0005245D5D8019A00205245F1D3B7E7C0460B
:1017E000FF070000F0B5474680B4061C0C1C90466D
:1017F0001D1C00F00DFA071C4246002A2BD05CE0AD
:101800006B1C28D0002D04D000F002FAC01BA842A7
:1018100021D933685A68E0218A435A6033681A68CC
:1018200040218A431A6080239B01B26A9A420AD1FE
:1018300033681968254A0A401A603368196880229B
:1018400092010A431A6001225123F25400225023CC
:10185000F254032037E033689B682340A342CFD182
:10186000002030E06B1C28D0002D04D000F0D0F90F
:10187000C01BA84221D933685A68E0218A435A60C4
:1018800033681A6840218A431A6080239B01B26A38
:101890009A420AD1336819680C4A0A401A603368C0
:1018A0001968802292010A431A6001225123F254DE
:1018B00000225023F254032005E033689B68234044
:1018C000A342CFD0002004BC9046F0BDFFDFFFFF55
:1018D00038B5041E3BD05123C35C002B04D1002239
:1018E0005023C25400F042FB51230222E2542268EA
:1018F000116840208143116022686168A06801433B
:10190000E5682943206901436569294380208000F7
:10191000A56928400143E0690143256A2943A06A7B
:10192000014311602268618B04200140656A2943EC
:1019300051602268E06A10612268D069054901405F
:10194000D161002262650122E254002000E0012002
:1019500038BDC046FFF7FFFF30B583B0041C1D1C27
:101960005120205C012800D0D5E0002900D1D4E02E
:10197000002A00D1D3E05023E35C012B00D1D0E05A
:101980005023E05412205123E05400236365216367
:10199000A286E286E364A364A363A387E38780232C
:1019A0009B01A16A99420AD123681968604A0A40DA
:1019B0001A6023681968802292010A431A60802302
:1019C0001B02A2689A4205D1236819688022D201BD
:1019D0000A431A6023681A68510603D41968402222
:1019E0000A431A60E268002A34D16368002B03D0EE
:1019F000E38E9BB2012B1DD12268236B591C2163FE
:101A00001B78D360E38E013B9BB2E38612E0201C7F
:101A1000022100222B1CFFF7E5FE002800D082E007
:101A20002268236B591C21631B78D360E38E013B32
:101A30009BB2E386E38E9BB2002BE8D180239B010F
:101A4000A16A99423BD123681968802252010A4356
:101A50001A6034E06268002A03D0E38E9BB2012B47
:101A60001ED12368216B0A88DA60236B023323635B
:101A7000E38E013B9BB2E38612E0201C0221002290
:101A80002B1CFFF7AFFE00284FD12368216B0A887B
:101A9000DA60236B02332363E38E013B9BB2E38660
:101AA000E38E9BB2002BE8D180239B01A26A9A426D
:101AB00005D123681968802252010A431A60201C4C
:101AC000022100222B1CFFF78DFE002805D0626D3D
:101AD000202313436365032028E0201C802101227A
:101AE0002B1CFFF77FFE002805D0626D20231343D7
:101AF000636503201AE0A368002B05D12368DA6828
:101B000001929B680193019B01225123E254002220
:101B10005023E2540AE0022008E0012006E0012000
:101B200004E0022002E0032000E0032003B030BD07
:101B3000FFDFFFFF104B1968802252000A431A6032
:101B4000D9680E4A0A40DA6019680D4A0A401A60DC
:101B50009A6801218A439A6019680A4A0A401A6001
:101B6000D968094A0A40DA6000221A618022120507
:101B7000064B9A607047C046001002400C40FF8838
:101B8000F6FFF6FEFFFFFBFFFFFF02FF00ED00E0A8
:101B90007047C046FEE7C0467047C0467047C04623
:101BA00008B500F02DF800F0B1F808BD08B5102018
:101BB00000F0B0F908BDC04610B5041C074B18680A
:101BC000FA218900FEF7ACFA00F072F801204042D9
:101BD000211C002200F030F8002010BD0000002081
:101BE00008B5064B196840220A431A600020FFF727
:101BF000E3FF00F09BF9002008BDC0460020024032
:101C0000024B1A6801321A607047C046300000204B
:101C1000014B18687047C0463000002010B582B0F4
:101C20000190FFF7F5FF041CFFF7F2FF021B019B79
:101C30009A42F9D302B010BD70B5002816DAC0B2CE
:101C40000F230340083B9B089B00124A9B185D68CA
:101C500003221040C000FF22141C8440A5438901C8
:101C60000A408240281C1043586011E082080A4B49
:101C7000C0329200D55803242040C000FF24261C07
:101C80008640B54389010C408440281C2043D05035
:101C900070BDC04618ED00E000E100E01F231840D1
:101CA00001238340181C014B1860704700E100E0DD
:101CB00001380A4B98420FD8094B5860094A106AFC
:101CC0000002000AC02109060143116200229A6045
:101CD00007221A60002000E001207047FFFFFF008C
:101CE00010E000E000ED00E0042805D1054B196884
:101CF00004220A431A6004E0024B1A6804218A4352
:101D00001A60704710E000E07047C04608B5FFF762
:101D1000FBFF08BDF0B55F4656464D464446F0B45D
:101D200085B000230122944603266B4CA3466B4DDD
:101D3000C4E062469A401740BA4600D1BDE04F6801
:101D4000022F01D0122F16D1DF080837BF000197EC
:101D50003C58A14607273C1C1C40A400A0460F2766
:101D6000A7404C46BC43A1460F694446A7404C4699
:101D70002743019C27504F687C1E012C03D9112F4B
:101D800001D0122F1AD18768B8465C000394371C23
:101D9000A7404446BC43A046CF68039CA7404446A6
:101DA0002743876047689743B8464A68D706FF0FBE
:101DB0003C1C029A944047463C43446007685A00E2
:101DC000341C9440E44303943C40A1464C683440A6
:101DD00094404F4627430760C768039C3C408F6888
:101DE00097403C43C4604A6880246405224264D022
:101DF0005F467A6B644622437A639F0803973C1CD4
:101E00000234A200364C1759341C1C40A4000F2287
:101E1000A2409743B946A022D205904218D0314F34
:101E2000B84213D0304A90420DD0304FB84208D05B
:101E30002F4A904202D10527B8460BE00622904671
:101E400008E0B04606E00227B84603E0E04601E0BD
:101E5000002290464746A7403C1C4A461443039A3A
:101E6000023292001E4FD4512A6890465446E243F3
:101E7000444614404F68FF0302D5544647463C434E
:101E80002C606C68A04614404F68BF0302D55446CE
:101E900047463C436C60AC68A04614404F68FF0264
:101EA00002D5544647463C43AC60EC6822404F683C
:101EB000BF0201D552462243EA6001330F68029304
:101EC0003A1CDA4000D034E705B03CBC9046994655
:101ED000A246AB46F0BDC0460010024000040140DF
:101EE000000001400004005000080050000C0050A9
:101EF000001C00500369194201D0012000E00020BD
:101F00007047C046002A01D0816100E081627047BD
:101F10007047C04608B5044B5B69184203D0024BBA
:101F20005861FFF7F5FF08BD0004014008B50E4BEE
:101F3000596B01220A435A63996B802252050A4366
:101F40009A630520404200210022FFF775FE02201F
:101F5000404200210022FFF76FFE01204042002195
:101F60000022FFF769FE08BD0010024000B587B0EF
:101F700002680C4B9A4213D10B4B596B80225201D1
:101F80000A435A63E023019302230293002303933D
:101F9000032204920593A020C00501A9FFF7BAFE11
:101FA00007B000BD003001400010024010B51D4BCD
:101FB000DB68F0221A4222D11A4B9B6BDA0005D55E
:101FC000194B1B68C02252011A400EE0154B996B49
:101FD000802252050A439A63134A1168C0225201B3
:101FE0000A409C6B114921409963C0235B019A42CE
:101FF00007D1C0231B02984205D0002104E0002134
:1020000002E0002100E00121094B18680122904301
:10201000084318601B681A408A4201D0012000E082
:10202000002010BD0010024000700040FFFFFFEFD5
:1020300000200240F0B54F464646C0B483B0041CB1
:102040000068C00765D5C74BDB680C221340082B1E
:1020500008D0C44BDB6813400C2B0BD1C14BDB68A1
:10206000D90307D5BF4B1B689A0352D56368002B71
:102070004FD196E2636880225202934206D1B94B57
:102080001968802252020A431A601EE0A022D2027E
:1020900093420BD1B34B19688022D2020A431A60D3
:1020A0001968802252020A431A600EE0AD4B19688B
:1020B000AD4A0A401A601968802252020A40019211
:1020C000019A1968A94A0A401A606068002810D06D
:1020D000FFF79EFD071CA34E8025AD0205E0FFF72C
:1020E00097FDC31B642B00D95DE233682B42F6D009
:1020F0000FE0FFF78DFD071C9A4E8025AD0205E02D
:10210000FFF786FDC31B642B00D94EE233682B42D8
:10211000F6D12168890754D5924BDB680C22134015
:10212000042B08D08F4BDB6813400C2B14D18D4B44
:10213000DB68DA0310D48B4B1B68580703D5E168C2
:10214000012900D033E2874B5968894A0A40206947
:1021500001020A435A6034E0E368002B1DD0814A33
:102160001168092081430B431360FFF751FD071CE1
:102170007C4E042505E0FFF74BFDC31B022B00D965
:1021800017E233681D42F6D0764B5968784A0A4008
:10219000206901020A435A6013E0724B1A68012158
:1021A0008A431A60FFF734FD071C6E4E042505E0D4
:1021B000FFF72EFDC31B022B00D9FCE133681D4243
:1021C000F6D12168C90600D48BE0664BDB680C228F
:1021D0001A4249D1634B1B689A0503D5E369002B6A
:1021E00000D1EAE1606A5F4B5A68E0231B021340AA
:1021F000984213D9FFF7DAFE002800D0DFE1594BEF
:1022000059685C4A0A40606A02435A605968090288
:10221000090A206A02060A435A6012E0514B5968C3
:10222000544A0A40104358605A681202120A206A3F
:1022300001060A435A60606AFFF7B8FE002800D022
:10224000BFE1616A4B0B0133802212029A40454B79
:10225000DB681B061B0F4849CB5CDA40474B1A6012
:102260000020FFF7A9FC3CE0E269002A24D03D4BA6
:102270001968802252000A431A60FFF7C9FC071C44
:10228000384E8025AD0005E0FFF7C2FCC31B022BD2
:1022900000D998E133682B42F6D0324B5968354A61
:1022A0000A40606A02435A6059680902090A206AB2
:1022B00002060A435A6014E02A4B1968304A0A4061
:1022C0001A60FFF7A5FC071C264E8025AD0005E02F
:1022D000FFF79EFCC31B022B00D976E133682B422B
:1022E000F6D1216809072BD56269002A14D01D4B4D
:1022F000196D01220A431A65FFF78AFC071C194E63
:10230000022505E0FFF784FCC31B022B00D95EE128
:10231000336D1D42F6D013E0124B1A6D01218A4332
:102320001A65FFF775FC071C0E4E022505E0FFF746
:102330006FFCC31B022B00D94BE1336D1D42F6D15C
:1023400023685B0700D49AE0064B9B6BD80019D436
:10235000044B996B802252050A439A6301218846F7
:1023600012E0C04600100240FFFFFEFFFFFFFBFF30
:10237000FFE0FFFFFF1FFFFFE43200080000002026
:10238000FFFEFFFF002290469F4B1B68D80515D427
:102390009D4B1968802252000A431A60FFF738FCEF
:1023A000071C994E80256D0005E0FFF731FCC31B2B
:1023B000642B00D90FE133682B42F6D0A36880224A
:1023C0005200934206D1914B196D802252000A436C
:1023D0001A6524E0002B09D18C4B196D8C4A0A40F8
:1023E0001A65196D8B4A0A401A6518E0A022D200BE
:1023F00093420BD1854B196D8022D2000A431A6596
:10240000196D802252000A431A6508E07F4B196D4E
:102410007F4A0A401A65196D7E4A0A401A65A1680A
:10242000002912D0FFF7F4FB8146784E8025AD00DD
:10243000794F06E0FFF7ECFB4A46831ABB4200D90E
:10244000CBE0336D2B42F5D011E0FFF7E1FB814685
:102450006E4E8025AD00704F06E0FFF7D9FB494670
:10246000431ABB4200D9BAE0336D2B42F5D1424644
:10247000012A04D1654B996B684A0A409A63236824
:102480009B0638D5A06900281DD0604B99680122B1
:1024900011439960596B0A435A63614B196A802250
:1024A00092010A431A62FFF7B3FB071C574E02253D
:1024B00005E0FFF7ADFBC31B022B00D991E0B36829
:1024C0001D42F6D017E0514B9A6801218A439A6069
:1024D000534B196A534A0A401A62FFF799FB071CCB
:1024E0004A4E022504E0FFF793FBC31B022B7AD868
:1024F000B3681D42F7D1A36A002B76D0434AD26855
:102500000C210A400C2A72D0022B34D13F4B19689F
:10251000454A0A401A60FFF77BFB071C3B4E8025AB
:10252000AD0404E0FFF774FBC31B022B61D83368D2
:102530002B42F7D1354BD9683C4A1140E06A226BF7
:102540001043626B02430A43DA6019688022520426
:102550000A431A60FFF75CFB061C2C4D8024A40480
:1025600004E0FFF755FB831B022B44D82B68234262
:10257000F7D0002042E0254B19682B4A0A401A6028
:10258000FFF746FB061C214D8024A40404E0FFF75E
:102590003FFB831B022B30D82B682342F7D100204E
:1025A0002CE001202AE0032028E0032026E001207F
:1025B00024E0032022E0032020E001201EE001208F
:1025C0001CE001201AE0032018E0032016E003209D
:1025D00014E0032012E0032010E003200EE00320AB
:1025E0000CE003200AE0032008E0002006E00120C0
:1025F00004E0032002E0032000E0032003B00CBC51
:1026000090469946F0BDC046007000400010024060
:10261000FFFEFFFFFFFBFFFF88130000FFFFFFEF40
:1026200000000140FFDFFFFFFFFFFFFEFFFF02FF93
:1026300008B51D4BD9680C230B40082B30D00C2B50
:1026400007D0042B23D1184B1B68D8062AD517486E
:1026500029E08B021B0F164AD25C0902890F013157
:10266000114BDB68D80304D512485043FDF758FDE1
:1026700019E00D4B1B68D80604D50C485043FDF7F4
:102680004FFD10E00C485043FDF74AFD0BE0064BB0
:102690005B681B045B0F013380200002984002E05E
:1026A000044800E0044808BD0010024000093D0055
:1026B000F432000800127A000024F400F8B54F4606
:1026C0004646C0B4041C0D1C6B4B1B680122134012
:1026D0008B4209D2684B19689143294319601B68E2
:1026E0001A40AA4200D0B0E02168890706D5634BA2
:1026F000DA68F0218A43A1680A43DA602268D207C7
:102700006FD56368022B04D15C4A1268910313D41D
:102710009DE0032B04D1594A126891010CD498E032
:10272000012B04D1554A1268510705D493E0534A4E
:102730001268910500D490E0504AD168032081438B
:102740000B43D360FFF764FA061C6368022B11D1B8
:1027500005E0FFF75DFA801B484505D97FE0474A51
:1027600090460C27464B99464146CB683B40082B88
:10277000EFD136E0032B11D105E0FFF749FA801BBA
:10278000484505D96DE03D4A90460C273C4B99469B
:102790004146CB683B400C2BEFD122E0012B17D1F7
:1027A00005E0FFF735FA801B484505D95BE0334A61
:1027B00090460C27324B99464146CB683B40042B50
:1027C000EFD10EE0FFF724FA801B484505D94CE015
:1027D0002A4A90460C272A4B99464146CB681F420D
:1027E000F0D1254B1B6801221340AB4208D9224B84
:1027F00019689143294319601B681A40AA4236D1CF
:102800002268520706D51D4BD9681E4A0A40E16866
:102810000A43DA602268120707D5184BD9681A4AAA
:102820000A402169C9000A43DA60FFF701FF134B30
:10283000DB681B061B0F154AD35CD840144B18608D
:102840000020FFF7B9F9002012E0012010E001207C
:102850000EE001200CE001200AE0012008E0032046
:1028600006E0032004E0032002E0032000E0012052
:102870000CBC90469946F8BD002002400010024072
:1028800088130000FFF8FFFFFFC7FFFFE4320008D6
:1028900000000020014B18687047C046000000206F
:1028A00070B588B0234BDA6A01242243DA62DA6A0F
:1028B00022400192019AD96A02221143D962DB6A4D
:1028C0001A400292029BA026F605301C1A490022EB
:1028D000FFF718FB03940494002505950695301C1A
:1028E00003A9FFF717FAC0239B00039304940595EF
:1028F00003230693301C03A9FFF70CFA0823039364
:10290000049505950D4D281C03A9FFF703FA102324
:1029100003930B4B04930594281C03A9FFF7FAF9C2
:10292000072000210022FFF787F90720FFF7B6F9FB
:1029300008B070BD00100240010300000004005008
:10294000000021100123074A1370074A1370002268
:10295000064B1A70064A074B1A60074A074B1A6063
:102960007047C0460D0000200C0000202D00002004
:102970002C330008040000203C330008080000202D
:10298000114B4386114B0386114BC36200224263F5
:10299000FA23DB0183630E2343700421817001233A
:1029A0000370037141758375C27507210175037644
:1029B000282143542623C2542923C25420222723EA
:1029C000C254082383847047020200000102000001
:1029D0002042C43310B51420FFF720F9A024E405E9
:1029E000201C01210022FFF78DFA3220FFF716F993
:1029F000201C01210122FFF785FA1420FFF70EF9B0
:102A000010BDC046002302E0C0460133DBB20E2BEE
:102A1000FAD9704708B5A020C0058021890001229D
:102A2000FFF770FA08BDC04610B5044C201C082101
:102A3000FFF760FA0128F9D010BDC046000400502D
:102A4000F0B54F464646C0B483B0061C8946904652
:102A5000FFF7EAFFA025ED0580246400281C211C57
:102A60000022FFF74FFA694607310E700C4F01261E
:102A70007642381C0122331CFEF76EFF381C494693
:102A80004246331CFEF768FF281C211C0122FFF779
:102A900039FAFFF7B7FF03B00CBC90469946F0BD7A
:102AA0009400002000B583B00422074B1A70030C79
:102AB00001A90B70030A4B70887083200322FFF773
:102AC000BFFF03B000BDC0463400002030B583B066
:102AD000040A6D462C706870080AA870E970110A23
:102AE00029716A711A0AAA71EB71082069460822D5
:102AF000FFF7A6FF03B030BD08B5018E081C002209
:102B00000023FFF7E3FF08BD10B582B001AC2070D1
:102B10006170A270E3709520211C0422FFF790FFE2
:102B200002B010BD00B583B0194B984205D901AB76
:102B3000E1221A70E9225A7022E0164B984205D918
:102B400001ABD7221A70D8225A7019E0124B984262
:102B500005D901ABC1221A70C5225A7010E00F4B83
:102B6000984205D901AB75221A7081225A7007E08C
:102B70000B4B984204D901AB6B221A706F225A702A
:102B8000982001A90222FFF75BFF03B000BDC046F9
:102B900000E9A43580F8A9328044E52D000B6B1BB9
:102BA00040FC54190000000010B582B0041C124B08
:102BB0001B78002B04D1FFF7B5FF01220E4B1A70D2
:102BC000201CFEF739FC0B4B094AFDF719FBFDF7FA
:102BD000F7FA030E01A90B70030C4B70030A8B70FC
:102BE000C87086200422FFF72BFF02B010BDC0463C
:102BF000000000008084EE3F2C000020C046C0464C
:102C000010B582B0041C002369460B714B718B71A7
:102C1000CB710378002B02D0012B2AD066E04068EC
:102C2000FEF70AFC021C0B1C32493148FDF7E8FA9A
:102C3000314A324BFDF708FEFDF7C2FA030C6A4633
:102C40001370030A53709070237BD370637B1371EE
:102C5000A068FEF7F1FB2A4A2A4BFDF7D1FAFDF7EF
:102C6000AFFA030C69464B71030A8B71C8710822D5
:102C700038E0437C0A2B2CD89A0023498A5897467F
:102C80000022C27425E0027C0C2A02D10122C27407
:102C90001FE00022C2741CE0027C0A2A02D9012231
:102CA000C27416E00022C27413E0027C092A02D921
:102CB0000122C2740DE00022C2740AE0027C082ADC
:102CC00002D90122C27404E00022C27401E0012290
:102CD000C274227C69460A704B70A37C8B70E37CC3
:102CE000CB7004228B206946FFF7AAFE02B010BD0C
:102CF0000000000080847E41000000000000404091
:102D0000000000008084EE3F00330008C046C0464B
:102D100010B584B001AB00229A71DA711A7203788F
:102D2000002B02D0012B22D033E0437AF12B03D0C9
:102D3000F22B03D1062402E0022400E01C1C42888E
:102D4000D20092B2428001AB110A19705A70027916
:102D50009A704279D200DA7082791A71C2795A7106
:102D6000027A9A71DC71827A1A7209220DE08289E4
:102D700001AB110A19705A70827B9A70C27BDA70AB
:102D8000027C1A71427C5A7106228C2001A9FFF73D
:102D900057FE04B010BDC04600B583B06946073188
:102DA00008708A200122FFF74BFE03B000BDC04629
:102DB00010B582B06C46E07107348020211C0122DE
:102DC000FFF73EFE2378002B03D10122034B1A703C
:102DD00002E00222014B1A7002B010BD3400002044
:102DE00000B583B06946073108709D200122FFF7C6
:102DF00027FE03B000BDC046F0B557464E464546D7
:102E0000E0B484B08A46914607236B449846187014
:102E1000FFF70AFEA027FF0580267600381C311C2C
:102E20000022FFF76FF869460F310E220A700F4D2E
:102E300001246442281C0122231CFEF78DFD281C5E
:102E400041460122231CFEF787FD281C51464A46B5
:102E5000231CFEF781FD381C311C0022FFF752F8BD
:102E600004B01CBC90469946A246F0BD94000020D8
:102E700008B5031C0A1C0020191CFFF7BDFF08BD84
:102E800008B50421FFF7F4FF08BDC046E0B557467A
:102E90004E464546E0B483B0071C8A469146FFF78C
:102EA000C3FDA026F60580256D00301C291C0022DC
:102EB000FFF728F801A90D230B7000234B708F70CA
:102EC0000C4B984601277F42181C03223B1CFEF73F
:102ED00043FD404651464A463B1CFEF73DFD301C33
:102EE000291C0122FFF70EF803B02CBC904699462E
:102EF000AA46E0BD9400002030B583B0041C0D1C30
:102F00000F2806D10620002101220123FFF7FCFD36
:102F100005E00420002101220123FFF7F5FD0D2C1F
:102F200002DCE31C02DB03E00E2401E00324644224
:102F3000064818210122FFF7A9FF01A90C704D7066
:102F40008E200222FFF77CFD03B030BDE7080000B1
:102F500008B5011CD820C0000822FFF797FF08BD64
:102F600010B582B0041C0078FFF716FF201C183043
:102F7000FFF7CEFE201DFFF743FEE06AFFF714FEC9
:102F8000A17801202056FFF7B7FF2378002B07D147
:102F900068460449082200F04BF96846FFF7D8FF5D
:102FA00002B010BD5C320008F0B5474680B482B074
:102FB000A026F60580256D00301C291C0022FEF796
:102FC000A1FF6C46C023E37107340F4B98460127DD
:102FD0007F42181C211C01223B1CFEF7BDFC002374
:102FE00023704046211C01223B1CFEF7B5FC301C1F
:102FF000291C0122FEF786FFFFF716FDFFF70AFDE9
:1030000002B004BC9046F0BD9400002008B5FFF764
:10301000E1FCFFF7C9FF0020FFF7CAFEFFF7FAFC4B
:103020000120FFF7DDFE0122084B1A700120FFF797
:10303000B3FEE820C00014210122FFF727FF044857
:1030400024210122FFF722FF08BDC04634000020E2
:1030500041070000FEE7C04608B50E480E4B03606E
:1030600082235B00436000238360C360036143618C
:10307000802292008261C3610362436283620723FC
:10308000C362FEF725FC002803D004480449FFF77B
:10309000E1FF08BD940000200030014030330008FB
:1030A000CF03000000B595B01F4B19681F4A0A40B6
:1030B000802109010A431A60022306930923099318
:1030C00010230A930023109306A8FEF7B3FF0028ED
:1030D00004D01748E8218900FFF7BCFF0F230193B4
:1030E00001230293002303930493059301A8002175
:1030F000FFF7E4FA002803D00D480E49FFF7AAFFB6
:10310000FFF7C8FBFA218900FDF70AF8FEF7D0FDAA
:103110000420FEF7E9FD0120404200210022FEF7D5
:103120008BFD15B000BDC04600700040FFE7FFFFFB
:1031300030330008AE03000070B5FEF751FDFFF715
:10314000B1FFFFF7ADFBFFF787FFFFF743FCFFF78A
:103150005DFFFFF7F7FB0C4C201CFFF711FC201C58
:10316000FFF7FEFE094E084CFA256D003068FFF7A8
:1031700087FE201CFFF7C0FC606BFFF793FC281C48
:10318000FEF74CFDF2E7C0463800002008000020A2
:103190000D488546002103E00C4B5B584350043139
:1031A0000B480C4B42189A42F6D30B4A02E000231C
:1031B00013600432094B9A42F9D3FEF7BBFC00F0CE
:1031C00011F8FFF7B9FFFEE70020002048330008A0
:1031D000000000201000002010000020EC00002063
:1031E000FEE7000070B50E4B0E4D0024ED1AAD1039
:1031F0001E1CAC4204D0A300F35898470134F8E7F2
:1032000000F020F8084B094D0024ED1AAD101E1CEB
:10321000AC4204D0A300F35898470134F8E770BDDE
:1032200040330008403300084033000844330008AE
:1032300010B50023934203D0CC5CC4540133F9E7AA
:1032400010BD0000F8B5C046F8BC08BC9E467047EB
:0C325000F8B5C046F8BC08BC9E467047AC
:10325C00F00F55AAF00F55AAE803000884030008E4
:10326C00CC030008B2020008CC030008C00300081D
:10327C00CC030008B2020008840300088403000891
:10328C00C0030008B2020008A8020008A802000847
:10329C00A80200080C0600082C0A00081A0C0008EA
:1032AC001A0C00080C0A0008F6080008F6080008BA
:1032BC00FE0900080C0A0008F6080008FE090008C0
:1032CC00F60800080C0A0008F4080008F4080008C6
:1032DC00F4080008220C00080000000000000000A8
:1032EC000102030406070809030406080C10182041
:1032FC0030000000CE2C0008CE2C0008CE2C00088C
:10330C00AA2C0008982C0008862C0008802C000899
:10331C00D22C0008CE2C0008CE2C0008BC2C0008A7
:10332C00504F4E475372632F6D61696E2E630000D0
:04333C0050494E475F
:04334000E900000898
:04334400C1000008BC
:1033480080841E002C3300083C3300080101000073
:04000005080031912D
:00000001FF
